{
  "contractName": "CrowdFunding",
  "abi": [
    {
      "inputs": [
        {
          "internalType": "uint256",
          "name": "_goal",
          "type": "uint256"
        },
        {
          "internalType": "uint256",
          "name": "_deadline",
          "type": "uint256"
        }
      ],
      "stateMutability": "nonpayable",
      "type": "constructor"
    },
    {
      "inputs": [],
      "name": "admin",
      "outputs": [
        {
          "internalType": "address",
          "name": "",
          "type": "address"
        }
      ],
      "stateMutability": "view",
      "type": "function"
    },
    {
      "inputs": [
        {
          "internalType": "address",
          "name": "",
          "type": "address"
        }
      ],
      "name": "contributors",
      "outputs": [
        {
          "internalType": "uint256",
          "name": "",
          "type": "uint256"
        }
      ],
      "stateMutability": "view",
      "type": "function"
    },
    {
      "inputs": [],
      "name": "deadline",
      "outputs": [
        {
          "internalType": "uint256",
          "name": "",
          "type": "uint256"
        }
      ],
      "stateMutability": "view",
      "type": "function"
    },
    {
      "inputs": [],
      "name": "goal",
      "outputs": [
        {
          "internalType": "uint256",
          "name": "",
          "type": "uint256"
        }
      ],
      "stateMutability": "view",
      "type": "function"
    },
    {
      "inputs": [],
      "name": "minimumContribution",
      "outputs": [
        {
          "internalType": "uint256",
          "name": "",
          "type": "uint256"
        }
      ],
      "stateMutability": "view",
      "type": "function"
    },
    {
      "inputs": [],
      "name": "noOfContributors",
      "outputs": [
        {
          "internalType": "uint256",
          "name": "",
          "type": "uint256"
        }
      ],
      "stateMutability": "view",
      "type": "function"
    },
    {
      "inputs": [],
      "name": "numRequests",
      "outputs": [
        {
          "internalType": "uint256",
          "name": "",
          "type": "uint256"
        }
      ],
      "stateMutability": "view",
      "type": "function"
    },
    {
      "inputs": [],
      "name": "raisedAmount",
      "outputs": [
        {
          "internalType": "uint256",
          "name": "",
          "type": "uint256"
        }
      ],
      "stateMutability": "view",
      "type": "function"
    },
    {
      "inputs": [
        {
          "internalType": "uint256",
          "name": "",
          "type": "uint256"
        }
      ],
      "name": "requests",
      "outputs": [
        {
          "internalType": "string",
          "name": "description",
          "type": "string"
        },
        {
          "internalType": "address payable",
          "name": "receipient",
          "type": "address"
        },
        {
          "internalType": "uint256",
          "name": "value",
          "type": "uint256"
        },
        {
          "internalType": "bool",
          "name": "completed",
          "type": "bool"
        },
        {
          "internalType": "uint256",
          "name": "noOfVoters",
          "type": "uint256"
        }
      ],
      "stateMutability": "view",
      "type": "function"
    },
    {
      "stateMutability": "payable",
      "type": "receive"
    },
    {
      "inputs": [],
      "name": "contribute",
      "outputs": [],
      "stateMutability": "payable",
      "type": "function"
    },
    {
      "inputs": [],
      "name": "getBalance",
      "outputs": [
        {
          "internalType": "uint256",
          "name": "",
          "type": "uint256"
        }
      ],
      "stateMutability": "view",
      "type": "function"
    },
    {
      "inputs": [],
      "name": "getRefund",
      "outputs": [],
      "stateMutability": "nonpayable",
      "type": "function"
    },
    {
      "inputs": [
        {
          "internalType": "string",
          "name": "_description",
          "type": "string"
        },
        {
          "internalType": "address payable",
          "name": "_recepient",
          "type": "address"
        },
        {
          "internalType": "uint256",
          "name": "_value",
          "type": "uint256"
        }
      ],
      "name": "CreateRequest",
      "outputs": [],
      "stateMutability": "nonpayable",
      "type": "function"
    },
    {
      "inputs": [
        {
          "internalType": "uint256",
          "name": "_requestNo",
          "type": "uint256"
        }
      ],
      "name": "VoteRequest",
      "outputs": [],
      "stateMutability": "nonpayable",
      "type": "function"
    }
  ],
  "bytecode": "0x60806040523480156200001157600080fd5b506040516200161a3803806200161a8339818101604052810190620000379190620000e3565b8160058190555080426200004c919062000159565b600481905550606460028190555033600160006101000a81548173ffffffffffffffffffffffffffffffffffffffff021916908373ffffffffffffffffffffffffffffffffffffffff160217905550505062000194565b600080fd5b6000819050919050565b620000bd81620000a8565b8114620000c957600080fd5b50565b600081519050620000dd81620000b2565b92915050565b60008060408385031215620000fd57620000fc620000a3565b5b60006200010d85828601620000cc565b92505060206200012085828601620000cc565b9150509250929050565b7f4e487b7100000000000000000000000000000000000000000000000000000000600052601160045260246000fd5b60006200016682620000a8565b91506200017383620000a8565b92508282019050808211156200018e576200018d6200012a565b5b92915050565b61147680620001a46000396000f3fe6080604052600436106100e15760003560e01c806381d12c581161007f578063b2d5ae4411610059578063b2d5ae44146102c7578063c59ee1dc146102de578063d7bb99ba14610309578063f851a44014610313576100f0565b806381d12c5814610230578063937e09b1146102715780639fb42b1f1461029c576100f0565b80633a88be74116100bb5780633a88be741461018857806340193883146101b15780634e260f6f146101dc57806351fe358f14610207576100f0565b806312065fe0146100f55780631f6d49421461012057806329dcb0cf1461015d576100f0565b366100f0576100ee61033e565b005b600080fd5b34801561010157600080fd5b5061010a610496565b6040516101179190610a1c565b60405180910390f35b34801561012c57600080fd5b5061014760048036038101906101429190610aa9565b61049e565b6040516101549190610a1c565b60405180910390f35b34801561016957600080fd5b506101726104b6565b60405161017f9190610a1c565b60405180910390f35b34801561019457600080fd5b506101af60048036038101906101aa9190610c86565b6104bc565b005b3480156101bd57600080fd5b506101c66105f0565b6040516101d39190610a1c565b60405180910390f35b3480156101e857600080fd5b506101f16105f6565b6040516101fe9190610a1c565b60405180910390f35b34801561021357600080fd5b5061022e60048036038101906102299190610cf5565b6105fc565b005b34801561023c57600080fd5b5061025760048036038101906102529190610cf5565b6107a1565b604051610268959493929190610dcb565b60405180910390f35b34801561027d57600080fd5b5061028661088c565b6040516102939190610a1c565b60405180910390f35b3480156102a857600080fd5b506102b1610892565b6040516102be9190610a1c565b60405180910390f35b3480156102d357600080fd5b506102dc610898565b005b3480156102ea57600080fd5b506102f36109d7565b6040516103009190610a1c565b60405180910390f35b61031161033e565b005b34801561031f57600080fd5b506103286109dd565b6040516103359190610e34565b60405180910390f35b6004544210610382576040517f08c379a000000000000000000000000000000000000000000000000000000000815260040161037990610e9b565b60405180910390fd5b6002543410156103c7576040517f08c379a00000000000000000000000000000000000000000000000000000000081526004016103be90610f07565b60405180910390fd5b60008060003373ffffffffffffffffffffffffffffffffffffffff1673ffffffffffffffffffffffffffffffffffffffff1681526020019081526020016000205403610426576003600081548092919061042090610f56565b91905055505b346000803373ffffffffffffffffffffffffffffffffffffffff1673ffffffffffffffffffffffffffffffffffffffff16815260200190815260200160002060008282546104749190610f9e565b92505081905550346006600082825461048d9190610f9e565b92505081905550565b600047905090565b60006020528060005260406000206000915090505481565b60045481565b600160009054906101000a900473ffffffffffffffffffffffffffffffffffffffff1673ffffffffffffffffffffffffffffffffffffffff163373ffffffffffffffffffffffffffffffffffffffff161461054c576040517f08c379a000000000000000000000000000000000000000000000000000000000815260040161054390611044565b60405180910390fd5b60006007600060085481526020019081526020016000209050828160010160006101000a81548173ffffffffffffffffffffffffffffffffffffffff021916908373ffffffffffffffffffffffffffffffffffffffff160217905550838160000190816105b99190611270565b5081816002018190555060008160030160006101000a81548160ff0219169083151502179055506000816004018190555050505050565b60055481565b60035481565b60008060003373ffffffffffffffffffffffffffffffffffffffff1673ffffffffffffffffffffffffffffffffffffffff168152602001908152602001600020541161067d576040517f08c379a0000000000000000000000000000000000000000000000000000000008152600401610674906113b4565b60405180910390fd5b6000600760008381526020019081526020016000209050600015158160050160003373ffffffffffffffffffffffffffffffffffffffff1673ffffffffffffffffffffffffffffffffffffffff16815260200190815260200160002060009054906101000a900460ff16151514610729576040517f08c379a000000000000000000000000000000000000000000000000000000000815260040161072090611420565b60405180910390fd5b60018160050160003373ffffffffffffffffffffffffffffffffffffffff1673ffffffffffffffffffffffffffffffffffffffff16815260200190815260200160002060006101000a81548160ff02191690831515021790555080600401600081548092919061079890610f56565b91905055505050565b60076020528060005260406000206000915090508060000180546107c490611093565b80601f01602080910402602001604051908101604052809291908181526020018280546107f090611093565b801561083d5780601f106108125761010080835404028352916020019161083d565b820191906000526020600020905b81548152906001019060200180831161082057829003601f168201915b5050505050908060010160009054906101000a900473ffffffffffffffffffffffffffffffffffffffff16908060020154908060030160009054906101000a900460ff16908060040154905085565b60025481565b60085481565b600454421180156108ac5750600554600654105b6108b557600080fd5b60008060003373ffffffffffffffffffffffffffffffffffffffff1673ffffffffffffffffffffffffffffffffffffffff168152602001908152602001600020541161090057600080fd5b600033905060008060003373ffffffffffffffffffffffffffffffffffffffff1673ffffffffffffffffffffffffffffffffffffffff1681526020019081526020016000205490508173ffffffffffffffffffffffffffffffffffffffff166108fc829081150290604051600060405180830381858888f1935050505015801561098e573d6000803e3d6000fd5b5060008060003373ffffffffffffffffffffffffffffffffffffffff1673ffffffffffffffffffffffffffffffffffffffff168152602001908152602001600020819055505050565b60065481565b600160009054906101000a900473ffffffffffffffffffffffffffffffffffffffff1681565b6000819050919050565b610a1681610a03565b82525050565b6000602082019050610a316000830184610a0d565b92915050565b6000604051905090565b600080fd5b600080fd5b600073ffffffffffffffffffffffffffffffffffffffff82169050919050565b6000610a7682610a4b565b9050919050565b610a8681610a6b565b8114610a9157600080fd5b50565b600081359050610aa381610a7d565b92915050565b600060208284031215610abf57610abe610a41565b5b6000610acd84828501610a94565b91505092915050565b600080fd5b600080fd5b6000601f19601f8301169050919050565b7f4e487b7100000000000000000000000000000000000000000000000000000000600052604160045260246000fd5b610b2982610ae0565b810181811067ffffffffffffffff82111715610b4857610b47610af1565b5b80604052505050565b6000610b5b610a37565b9050610b678282610b20565b919050565b600067ffffffffffffffff821115610b8757610b86610af1565b5b610b9082610ae0565b9050602081019050919050565b82818337600083830152505050565b6000610bbf610bba84610b6c565b610b51565b905082815260208101848484011115610bdb57610bda610adb565b5b610be6848285610b9d565b509392505050565b600082601f830112610c0357610c02610ad6565b5b8135610c13848260208601610bac565b91505092915050565b6000610c2782610a4b565b9050919050565b610c3781610c1c565b8114610c4257600080fd5b50565b600081359050610c5481610c2e565b92915050565b610c6381610a03565b8114610c6e57600080fd5b50565b600081359050610c8081610c5a565b92915050565b600080600060608486031215610c9f57610c9e610a41565b5b600084013567ffffffffffffffff811115610cbd57610cbc610a46565b5b610cc986828701610bee565b9350506020610cda86828701610c45565b9250506040610ceb86828701610c71565b9150509250925092565b600060208284031215610d0b57610d0a610a41565b5b6000610d1984828501610c71565b91505092915050565b600081519050919050565b600082825260208201905092915050565b60005b83811015610d5c578082015181840152602081019050610d41565b60008484015250505050565b6000610d7382610d22565b610d7d8185610d2d565b9350610d8d818560208601610d3e565b610d9681610ae0565b840191505092915050565b610daa81610c1c565b82525050565b60008115159050919050565b610dc581610db0565b82525050565b600060a0820190508181036000830152610de58188610d68565b9050610df46020830187610da1565b610e016040830186610a0d565b610e0e6060830185610dbc565b610e1b6080830184610a0d565b9695505050505050565b610e2e81610a6b565b82525050565b6000602082019050610e496000830184610e25565b92915050565b7f444541444c494e45204841532050415353454400000000000000000000000000600082015250565b6000610e85601383610d2d565b9150610e9082610e4f565b602082019050919050565b60006020820190508181036000830152610eb481610e78565b9050919050565b7f4d494e494d554d20434f4e545249425554494f4e204e4f54204d455400000000600082015250565b6000610ef1601c83610d2d565b9150610efc82610ebb565b602082019050919050565b60006020820190508181036000830152610f2081610ee4565b9050919050565b7f4e487b7100000000000000000000000000000000000000000000000000000000600052601160045260246000fd5b6000610f6182610a03565b91507fffffffffffffffffffffffffffffffffffffffffffffffffffffffffffffffff8203610f9357610f92610f27565b5b600182019050919050565b6000610fa982610a03565b9150610fb483610a03565b9250828201905080821115610fcc57610fcb610f27565b5b92915050565b7f6f6e6c792061646d696e2063616e2063616c6c20746869732066756e6374696f60008201527f6e00000000000000000000000000000000000000000000000000000000000000602082015250565b600061102e602183610d2d565b915061103982610fd2565b604082019050919050565b6000602082019050818103600083015261105d81611021565b9050919050565b7f4e487b7100000000000000000000000000000000000000000000000000000000600052602260045260246000fd5b600060028204905060018216806110ab57607f821691505b6020821081036110be576110bd611064565b5b50919050565b60008190508160005260206000209050919050565b60006020601f8301049050919050565b600082821b905092915050565b6000600883026111267fffffffffffffffffffffffffffffffffffffffffffffffffffffffffffffffff826110e9565b61113086836110e9565b95508019841693508086168417925050509392505050565b6000819050919050565b600061116d61116861116384610a03565b611148565b610a03565b9050919050565b6000819050919050565b61118783611152565b61119b61119382611174565b8484546110f6565b825550505050565b600090565b6111b06111a3565b6111bb81848461117e565b505050565b5b818110156111df576111d46000826111a8565b6001810190506111c1565b5050565b601f821115611224576111f5816110c4565b6111fe846110d9565b8101602085101561120d578190505b611221611219856110d9565b8301826111c0565b50505b505050565b600082821c905092915050565b600061124760001984600802611229565b1980831691505092915050565b60006112608383611236565b9150826002028217905092915050565b61127982610d22565b67ffffffffffffffff81111561129257611291610af1565b5b61129c8254611093565b6112a78282856111e3565b600060209050601f8311600181146112da57600084156112c8578287015190505b6112d28582611254565b86555061133a565b601f1984166112e8866110c4565b60005b82811015611310578489015182556001820191506020850194506020810190506112eb565b8683101561132d5784890151611329601f891682611236565b8355505b6001600288020188555050505b505050505050565b7f596f75206d757374206265206120636f6e7472696275746f7220746f20766f7460008201527f6521000000000000000000000000000000000000000000000000000000000000602082015250565b600061139e602283610d2d565b91506113a982611342565b604082019050919050565b600060208201905081810360008301526113cd81611391565b9050919050565b7f596f75206861766520616c726561647920766f74656421000000000000000000600082015250565b600061140a601783610d2d565b9150611415826113d4565b602082019050919050565b60006020820190508181036000830152611439816113fd565b905091905056fea2646970667358221220ecad16aea4e63d4a52feeb31aafafee8eb483b22023177450e1495f5d80509d464736f6c63430008100033",
  "immutableReferences": {},
  "source": "\n// SPDX-License-Identifier: GPL-3.0\npragma solidity >=0.7.0 <0.9.0;\n\ncontract CrowdFunding{\n    // address key - value - amount sent by contributors\n     mapping(address=>uint) public contributors;\n\n     address public admin;\n     uint public minimumContribution;\n     uint public noOfContributors;\n     uint public deadline; // timestamp\n     uint public goal;\n     uint public raisedAmount;\n\n     constructor(uint _goal,uint _deadline){\n        goal=_goal;\n        deadline = block.timestamp+ _deadline;\n        minimumContribution = 100 wei;\n        admin = msg.sender;\n         \n     }\n\n\n\n   // the infor about spending request will be stored in structure variable\n     struct Request{\n        string description;\n        address payable receipient; // this is the person that will get the money\n        uint value; // value sent by voters\n        // bydefault it is false\n        bool completed; // once the contributers have voted for it and the payment has been done, it will be marked as being completed\n        uint noOfVoters;\n        // default value will be false\n        mapping(address =>bool) voters; // voters who are agree to spend the money to given request\n     }\n\n// here we cant store this to an array bcz in new versions\n// array cant have mapping type stored init\n     mapping(uint => Request) public requests;\n\n     uint public numRequests;\n\n\n     // call function when someone wants to send money to the crowdfunding contract\n\n     function contribute() public payable{\n        require(block.timestamp<deadline,\"DEADLINE HAS PASSED\");\n        require(msg.value>= minimumContribution,\"MINIMUM CONTRIBUTION NOT MET\");\n         \n        if(contributors[msg.sender]==0){\n            noOfContributors++;\n        }\n\n        contributors[msg.sender] += msg.value;\n        raisedAmount += msg.value;\n     }\n\n\n     receive() payable external{\n        contribute();\n     }\n\n\n     function getBalance() public view returns(uint) {\n        return address(this).balance;\n     }\n\n\n     // getting the refund- function\n     \n     function getRefund() public{\n    \n    require(block.timestamp> deadline && raisedAmount < goal);\n    require(contributors[msg.sender]>0);\n\n     address payable recipeint = payable(msg.sender);\n     uint value = contributors[msg.sender];\n     recipeint.transfer(value);\n      \n      contributors[msg.sender] = 0;\n     }\n\n\n\n// create request function can only be call by admin\n        modifier onlyAdmin(){\n            require(msg.sender==admin,\"only admin can call this function\");\n            _;\n        }\n     // creating a spending request\n    \n    function CreateRequest(string memory _description,address payable _recepient,uint _value) public onlyAdmin{\n        // struct must be declare as storage bcz it contains nested mapping here\n        // default of the numrequest is zero - so the request starts from index zero\n         Request storage newRequest = requests[numRequests];\n         newRequest.receipient=_recepient;\n         newRequest.description= _description;\n         newRequest.value= _value;\n         newRequest.completed= false;\n         newRequest.noOfVoters =0;\n\n// we can also do this way normally - but here we got the error - bcz the given struct contain nested mapping\n// and cant be initiaze with a constructore\n      //  requests[numRequests] = Request(_description,_recepient,_value,false,0);\n\n    }\n\n  // Voting for a Request\n\n   function VoteRequest(uint _requestNo) public{\n     require(contributors[msg.sender]>0,'You must be a contributor to vote!');\n     Request storage thisRequest = requests[_requestNo];\n\n     require(thisRequest.voters[msg.sender]==false, \"You have already voted!\");\n     thisRequest.voters[msg.sender] = true;\n     thisRequest.noOfVoters++;\n   }\n\n\n}",
  "sourcePath": "/home/tuba/Work-Folder/BlockChain-Developement/CrowdFunding-Dapp-project/src/contracts/CrowdFunding.sol",
  "compiler": {
    "name": "solc",
    "version": "0.8.16+commit.07a7930e.Emscripten.clang"
  },
  "schemaVersion": "3.4.9",
  "updatedAt": "2022-09-05T13:46:39.091Z",
  "devdoc": {
    "kind": "dev",
    "methods": {},
    "version": 1
  },
  "userdoc": {
    "kind": "user",
    "methods": {},
    "version": 1
  }
}