{
  "contractName": "CrowdFunding",
  "abi": [
    {
      "inputs": [
        {
          "internalType": "uint256",
          "name": "_goal",
          "type": "uint256"
        },
        {
          "internalType": "uint256",
          "name": "_deadline",
          "type": "uint256"
        }
      ],
      "stateMutability": "nonpayable",
      "type": "constructor"
    },
    {
      "anonymous": false,
      "inputs": [
        {
          "indexed": false,
          "internalType": "address",
          "name": "_sender",
          "type": "address"
        },
        {
          "indexed": false,
          "internalType": "uint256",
          "name": "_value",
          "type": "uint256"
        }
      ],
      "name": "ContributeEvent",
      "type": "event"
    },
    {
      "anonymous": false,
      "inputs": [
        {
          "indexed": false,
          "internalType": "string",
          "name": "_description",
          "type": "string"
        },
        {
          "indexed": false,
          "internalType": "address",
          "name": "_recipient",
          "type": "address"
        },
        {
          "indexed": false,
          "internalType": "uint256",
          "name": "_value",
          "type": "uint256"
        }
      ],
      "name": "CreateRequestEvent",
      "type": "event"
    },
    {
      "anonymous": false,
      "inputs": [
        {
          "indexed": false,
          "internalType": "address",
          "name": "_recipient",
          "type": "address"
        },
        {
          "indexed": false,
          "internalType": "uint256",
          "name": "_value",
          "type": "uint256"
        }
      ],
      "name": "makePaymentEvent",
      "type": "event"
    },
    {
      "inputs": [],
      "name": "admin",
      "outputs": [
        {
          "internalType": "address",
          "name": "",
          "type": "address"
        }
      ],
      "stateMutability": "view",
      "type": "function"
    },
    {
      "inputs": [
        {
          "internalType": "address",
          "name": "",
          "type": "address"
        }
      ],
      "name": "contributors",
      "outputs": [
        {
          "internalType": "uint256",
          "name": "",
          "type": "uint256"
        }
      ],
      "stateMutability": "view",
      "type": "function"
    },
    {
      "inputs": [],
      "name": "deadline",
      "outputs": [
        {
          "internalType": "uint256",
          "name": "",
          "type": "uint256"
        }
      ],
      "stateMutability": "view",
      "type": "function"
    },
    {
      "inputs": [],
      "name": "goal",
      "outputs": [
        {
          "internalType": "uint256",
          "name": "",
          "type": "uint256"
        }
      ],
      "stateMutability": "view",
      "type": "function"
    },
    {
      "inputs": [],
      "name": "minimumContribution",
      "outputs": [
        {
          "internalType": "uint256",
          "name": "",
          "type": "uint256"
        }
      ],
      "stateMutability": "view",
      "type": "function"
    },
    {
      "inputs": [],
      "name": "noOfContributors",
      "outputs": [
        {
          "internalType": "uint256",
          "name": "",
          "type": "uint256"
        }
      ],
      "stateMutability": "view",
      "type": "function"
    },
    {
      "inputs": [],
      "name": "numRequests",
      "outputs": [
        {
          "internalType": "uint256",
          "name": "",
          "type": "uint256"
        }
      ],
      "stateMutability": "view",
      "type": "function"
    },
    {
      "inputs": [],
      "name": "raisedAmount",
      "outputs": [
        {
          "internalType": "uint256",
          "name": "",
          "type": "uint256"
        }
      ],
      "stateMutability": "view",
      "type": "function"
    },
    {
      "inputs": [
        {
          "internalType": "uint256",
          "name": "",
          "type": "uint256"
        }
      ],
      "name": "requests",
      "outputs": [
        {
          "internalType": "string",
          "name": "description",
          "type": "string"
        },
        {
          "internalType": "address payable",
          "name": "receipient",
          "type": "address"
        },
        {
          "internalType": "uint256",
          "name": "value",
          "type": "uint256"
        },
        {
          "internalType": "bool",
          "name": "completed",
          "type": "bool"
        },
        {
          "internalType": "uint256",
          "name": "noOfVoters",
          "type": "uint256"
        }
      ],
      "stateMutability": "view",
      "type": "function"
    },
    {
      "stateMutability": "payable",
      "type": "receive"
    },
    {
      "inputs": [],
      "name": "contribute",
      "outputs": [],
      "stateMutability": "payable",
      "type": "function"
    },
    {
      "inputs": [],
      "name": "getBalance",
      "outputs": [
        {
          "internalType": "uint256",
          "name": "",
          "type": "uint256"
        }
      ],
      "stateMutability": "view",
      "type": "function"
    },
    {
      "inputs": [],
      "name": "getRefund",
      "outputs": [],
      "stateMutability": "nonpayable",
      "type": "function"
    },
    {
      "inputs": [
        {
          "internalType": "string",
          "name": "_description",
          "type": "string"
        },
        {
          "internalType": "address payable",
          "name": "_recipient",
          "type": "address"
        },
        {
          "internalType": "uint256",
          "name": "_value",
          "type": "uint256"
        }
      ],
      "name": "CreateRequest",
      "outputs": [],
      "stateMutability": "nonpayable",
      "type": "function"
    },
    {
      "inputs": [
        {
          "internalType": "uint256",
          "name": "_requestNo",
          "type": "uint256"
        }
      ],
      "name": "VoteRequest",
      "outputs": [],
      "stateMutability": "nonpayable",
      "type": "function"
    },
    {
      "inputs": [
        {
          "internalType": "uint256",
          "name": "_requestNo",
          "type": "uint256"
        }
      ],
      "name": "makePayment",
      "outputs": [],
      "stateMutability": "nonpayable",
      "type": "function"
    }
  ],
  "bytecode": "0x60806040523480156200001157600080fd5b5060405162001a9238038062001a928339818101604052810190620000379190620000e3565b8160058190555080426200004c919062000159565b600481905550606460028190555033600160006101000a81548173ffffffffffffffffffffffffffffffffffffffff021916908373ffffffffffffffffffffffffffffffffffffffff160217905550505062000194565b600080fd5b6000819050919050565b620000bd81620000a8565b8114620000c957600080fd5b50565b600081519050620000dd81620000b2565b92915050565b60008060408385031215620000fd57620000fc620000a3565b5b60006200010d85828601620000cc565b92505060206200012085828601620000cc565b9150509250929050565b7f4e487b7100000000000000000000000000000000000000000000000000000000600052601160045260246000fd5b60006200016682620000a8565b91506200017383620000a8565b92508282019050808211156200018e576200018d6200012a565b5b92915050565b6118ee80620001a46000396000f3fe6080604052600436106100ec5760003560e01c806351fe358f1161008a578063b2d5ae4411610059578063b2d5ae44146102fb578063c59ee1dc14610312578063d7bb99ba1461033d578063f851a44014610347576100fb565b806351fe358f1461023b57806381d12c5814610264578063937e09b1146102a55780639fb42b1f146102d0576100fb565b80633a88be74116100c65780633a88be741461019357806340193883146101bc5780634e260f6f146101e75780635114cb5214610212576100fb565b806312065fe0146101005780631f6d49421461012b57806329dcb0cf14610168576100fb565b366100fb576100f9610372565b005b600080fd5b34801561010c57600080fd5b50610115610503565b6040516101229190610ce3565b60405180910390f35b34801561013757600080fd5b50610152600480360381019061014d9190610d70565b61050b565b60405161015f9190610ce3565b60405180910390f35b34801561017457600080fd5b5061017d610523565b60405161018a9190610ce3565b60405180910390f35b34801561019f57600080fd5b506101ba60048036038101906101b59190610f4d565b610529565b005b3480156101c857600080fd5b506101d1610698565b6040516101de9190610ce3565b60405180910390f35b3480156101f357600080fd5b506101fc61069e565b6040516102099190610ce3565b60405180910390f35b34801561021e57600080fd5b5061023960048036038101906102349190610fbc565b6106a4565b005b34801561024757600080fd5b50610262600480360381019061025d9190610fbc565b6108c3565b005b34801561027057600080fd5b5061028b60048036038101906102869190610fbc565b610a68565b60405161029c959493929190611092565b60405180910390f35b3480156102b157600080fd5b506102ba610b53565b6040516102c79190610ce3565b60405180910390f35b3480156102dc57600080fd5b506102e5610b59565b6040516102f29190610ce3565b60405180910390f35b34801561030757600080fd5b50610310610b5f565b005b34801561031e57600080fd5b50610327610c9e565b6040516103349190610ce3565b60405180910390f35b610345610372565b005b34801561035357600080fd5b5061035c610ca4565b60405161036991906110fb565b60405180910390f35b60045442106103b6576040517f08c379a00000000000000000000000000000000000000000000000000000000081526004016103ad90611162565b60405180910390fd5b6002543410156103fb576040517f08c379a00000000000000000000000000000000000000000000000000000000081526004016103f2906111ce565b60405180910390fd5b60008060003373ffffffffffffffffffffffffffffffffffffffff1673ffffffffffffffffffffffffffffffffffffffff168152602001908152602001600020540361045a57600360008154809291906104549061121d565b91905055505b346000803373ffffffffffffffffffffffffffffffffffffffff1673ffffffffffffffffffffffffffffffffffffffff16815260200190815260200160002060008282546104a89190611265565b9250508190555034600660008282546104c19190611265565b925050819055507f2daf61dec57a2c194e9e87958b1a40a5c236b5e8c6041655d664ddbd16c2932033346040516104f9929190611299565b60405180910390a1565b600047905090565b60006020528060005260406000206000915090505481565b60045481565b600160009054906101000a900473ffffffffffffffffffffffffffffffffffffffff1673ffffffffffffffffffffffffffffffffffffffff163373ffffffffffffffffffffffffffffffffffffffff16146105b9576040517f08c379a00000000000000000000000000000000000000000000000000000000081526004016105b090611334565b60405180910390fd5b60006007600060085481526020019081526020016000209050828160010160006101000a81548173ffffffffffffffffffffffffffffffffffffffff021916908373ffffffffffffffffffffffffffffffffffffffff160217905550838160000190816106269190611560565b5081816002018190555060008160030160006101000a81548160ff021916908315150217905550600081600401819055507f5392bd80651676ccaaedec1afbe841d47e369223df0ba1586110b6426ee87a3a84848460405161068a93929190611687565b60405180910390a150505050565b60055481565b60035481565b600160009054906101000a900473ffffffffffffffffffffffffffffffffffffffff1673ffffffffffffffffffffffffffffffffffffffff163373ffffffffffffffffffffffffffffffffffffffff1614610734576040517f08c379a000000000000000000000000000000000000000000000000000000000815260040161072b90611334565b60405180910390fd5b600554600654101561074557600080fd5b6000600760008381526020019081526020016000209050600015158160030160009054906101000a900460ff161515146107b4576040517f08c379a00000000000000000000000000000000000000000000000000000000081526004016107ab90611711565b60405180910390fd5b60026003546107c39190611760565b8160040154116107d257600080fd5b8060010160009054906101000a900473ffffffffffffffffffffffffffffffffffffffff1673ffffffffffffffffffffffffffffffffffffffff166108fc82600201549081150290604051600060405180830381858888f19350505050158015610840573d6000803e3d6000fd5b5060018160030160006101000a81548160ff0219169083151502179055507f38da86d9249276300e7ff0ed0fcd614b11a0eda21c6082534598ac32ba9976418160010160009054906101000a900473ffffffffffffffffffffffffffffffffffffffff1682600201546040516108b7929190611791565b60405180910390a15050565b60008060003373ffffffffffffffffffffffffffffffffffffffff1673ffffffffffffffffffffffffffffffffffffffff1681526020019081526020016000205411610944576040517f08c379a000000000000000000000000000000000000000000000000000000000815260040161093b9061182c565b60405180910390fd5b6000600760008381526020019081526020016000209050600015158160050160003373ffffffffffffffffffffffffffffffffffffffff1673ffffffffffffffffffffffffffffffffffffffff16815260200190815260200160002060009054906101000a900460ff161515146109f0576040517f08c379a00000000000000000000000000000000000000000000000000000000081526004016109e790611898565b60405180910390fd5b60018160050160003373ffffffffffffffffffffffffffffffffffffffff1673ffffffffffffffffffffffffffffffffffffffff16815260200190815260200160002060006101000a81548160ff021916908315150217905550806004016000815480929190610a5f9061121d565b91905055505050565b6007602052806000526040600020600091509050806000018054610a8b90611383565b80601f0160208091040260200160405190810160405280929190818152602001828054610ab790611383565b8015610b045780601f10610ad957610100808354040283529160200191610b04565b820191906000526020600020905b815481529060010190602001808311610ae757829003601f168201915b5050505050908060010160009054906101000a900473ffffffffffffffffffffffffffffffffffffffff16908060020154908060030160009054906101000a900460ff16908060040154905085565b60025481565b60085481565b60045442118015610b735750600554600654105b610b7c57600080fd5b60008060003373ffffffffffffffffffffffffffffffffffffffff1673ffffffffffffffffffffffffffffffffffffffff1681526020019081526020016000205411610bc757600080fd5b600033905060008060003373ffffffffffffffffffffffffffffffffffffffff1673ffffffffffffffffffffffffffffffffffffffff1681526020019081526020016000205490508173ffffffffffffffffffffffffffffffffffffffff166108fc829081150290604051600060405180830381858888f19350505050158015610c55573d6000803e3d6000fd5b5060008060003373ffffffffffffffffffffffffffffffffffffffff1673ffffffffffffffffffffffffffffffffffffffff168152602001908152602001600020819055505050565b60065481565b600160009054906101000a900473ffffffffffffffffffffffffffffffffffffffff1681565b6000819050919050565b610cdd81610cca565b82525050565b6000602082019050610cf86000830184610cd4565b92915050565b6000604051905090565b600080fd5b600080fd5b600073ffffffffffffffffffffffffffffffffffffffff82169050919050565b6000610d3d82610d12565b9050919050565b610d4d81610d32565b8114610d5857600080fd5b50565b600081359050610d6a81610d44565b92915050565b600060208284031215610d8657610d85610d08565b5b6000610d9484828501610d5b565b91505092915050565b600080fd5b600080fd5b6000601f19601f8301169050919050565b7f4e487b7100000000000000000000000000000000000000000000000000000000600052604160045260246000fd5b610df082610da7565b810181811067ffffffffffffffff82111715610e0f57610e0e610db8565b5b80604052505050565b6000610e22610cfe565b9050610e2e8282610de7565b919050565b600067ffffffffffffffff821115610e4e57610e4d610db8565b5b610e5782610da7565b9050602081019050919050565b82818337600083830152505050565b6000610e86610e8184610e33565b610e18565b905082815260208101848484011115610ea257610ea1610da2565b5b610ead848285610e64565b509392505050565b600082601f830112610eca57610ec9610d9d565b5b8135610eda848260208601610e73565b91505092915050565b6000610eee82610d12565b9050919050565b610efe81610ee3565b8114610f0957600080fd5b50565b600081359050610f1b81610ef5565b92915050565b610f2a81610cca565b8114610f3557600080fd5b50565b600081359050610f4781610f21565b92915050565b600080600060608486031215610f6657610f65610d08565b5b600084013567ffffffffffffffff811115610f8457610f83610d0d565b5b610f9086828701610eb5565b9350506020610fa186828701610f0c565b9250506040610fb286828701610f38565b9150509250925092565b600060208284031215610fd257610fd1610d08565b5b6000610fe084828501610f38565b91505092915050565b600081519050919050565b600082825260208201905092915050565b60005b83811015611023578082015181840152602081019050611008565b60008484015250505050565b600061103a82610fe9565b6110448185610ff4565b9350611054818560208601611005565b61105d81610da7565b840191505092915050565b61107181610ee3565b82525050565b60008115159050919050565b61108c81611077565b82525050565b600060a08201905081810360008301526110ac818861102f565b90506110bb6020830187611068565b6110c86040830186610cd4565b6110d56060830185611083565b6110e26080830184610cd4565b9695505050505050565b6110f581610d32565b82525050565b600060208201905061111060008301846110ec565b92915050565b7f444541444c494e45204841532050415353454400000000000000000000000000600082015250565b600061114c601383610ff4565b915061115782611116565b602082019050919050565b6000602082019050818103600083015261117b8161113f565b9050919050565b7f4d494e494d554d20434f4e545249425554494f4e204e4f54204d455400000000600082015250565b60006111b8601c83610ff4565b91506111c382611182565b602082019050919050565b600060208201905081810360008301526111e7816111ab565b9050919050565b7f4e487b7100000000000000000000000000000000000000000000000000000000600052601160045260246000fd5b600061122882610cca565b91507fffffffffffffffffffffffffffffffffffffffffffffffffffffffffffffffff820361125a576112596111ee565b5b600182019050919050565b600061127082610cca565b915061127b83610cca565b9250828201905080821115611293576112926111ee565b5b92915050565b60006040820190506112ae60008301856110ec565b6112bb6020830184610cd4565b9392505050565b7f6f6e6c792061646d696e2063616e2063616c6c20746869732066756e6374696f60008201527f6e00000000000000000000000000000000000000000000000000000000000000602082015250565b600061131e602183610ff4565b9150611329826112c2565b604082019050919050565b6000602082019050818103600083015261134d81611311565b9050919050565b7f4e487b7100000000000000000000000000000000000000000000000000000000600052602260045260246000fd5b6000600282049050600182168061139b57607f821691505b6020821081036113ae576113ad611354565b5b50919050565b60008190508160005260206000209050919050565b60006020601f8301049050919050565b600082821b905092915050565b6000600883026114167fffffffffffffffffffffffffffffffffffffffffffffffffffffffffffffffff826113d9565b61142086836113d9565b95508019841693508086168417925050509392505050565b6000819050919050565b600061145d61145861145384610cca565b611438565b610cca565b9050919050565b6000819050919050565b61147783611442565b61148b61148382611464565b8484546113e6565b825550505050565b600090565b6114a0611493565b6114ab81848461146e565b505050565b5b818110156114cf576114c4600082611498565b6001810190506114b1565b5050565b601f821115611514576114e5816113b4565b6114ee846113c9565b810160208510156114fd578190505b611511611509856113c9565b8301826114b0565b50505b505050565b600082821c905092915050565b600061153760001984600802611519565b1980831691505092915050565b60006115508383611526565b9150826002028217905092915050565b61156982610fe9565b67ffffffffffffffff81111561158257611581610db8565b5b61158c8254611383565b6115978282856114d3565b600060209050601f8311600181146115ca57600084156115b8578287015190505b6115c28582611544565b86555061162a565b601f1984166115d8866113b4565b60005b82811015611600578489015182556001820191506020850194506020810190506115db565b8683101561161d5784890151611619601f891682611526565b8355505b6001600288020188555050505b505050505050565b600061164d61164861164384610d12565b611438565b610d12565b9050919050565b600061165f82611632565b9050919050565b600061167182611654565b9050919050565b61168181611666565b82525050565b600060608201905081810360008301526116a1818661102f565b90506116b06020830185611678565b6116bd6040830184610cd4565b949350505050565b7f54686973207265717565737420686173206265656e20636f6d706c6574656400600082015250565b60006116fb601f83610ff4565b9150611706826116c5565b602082019050919050565b6000602082019050818103600083015261172a816116ee565b9050919050565b7f4e487b7100000000000000000000000000000000000000000000000000000000600052601260045260246000fd5b600061176b82610cca565b915061177683610cca565b92508261178657611785611731565b5b828204905092915050565b60006040820190506117a66000830185611678565b6117b36020830184610cd4565b9392505050565b7f596f75206d757374206265206120636f6e7472696275746f7220746f20766f7460008201527f6521000000000000000000000000000000000000000000000000000000000000602082015250565b6000611816602283610ff4565b9150611821826117ba565b604082019050919050565b6000602082019050818103600083015261184581611809565b9050919050565b7f596f75206861766520616c726561647920766f74656421000000000000000000600082015250565b6000611882601783610ff4565b915061188d8261184c565b602082019050919050565b600060208201905081810360008301526118b181611875565b905091905056fea26469706673582212208f0a6bce0539f8f7cf72236013498107b27c6d279930d5025f7f8322ff008fed64736f6c63430008100033",
  "immutableReferences": {},
  "source": "\n// SPDX-License-Identifier: GPL-3.0\npragma solidity >=0.7.0 <0.9.0;\n\ncontract CrowdFunding{\n    // address key - value - amount sent by contributors\n     mapping(address=>uint) public contributors;\n\n     address public admin;\n     uint public minimumContribution;\n     uint public noOfContributors;\n     uint public deadline; // timestamp\n     uint public goal;\n     uint public raisedAmount;\n\n     constructor(uint _goal,uint _deadline){\n        goal=_goal;\n        deadline = block.timestamp+ _deadline;\n        minimumContribution = 100 wei;\n        admin = msg.sender;\n         \n     }\n\n\n\n   // the infor about spending request will be stored in structure variable\n     struct Request{\n        string description;\n        address payable receipient; // this is the person that will get the money\n        uint value; // value sent by voters\n        // bydefault it is false\n        bool completed; // once the contributers have voted for it and the payment has been done, it will be marked as being completed\n        uint noOfVoters;\n        // default value will be false\n        mapping(address =>bool) voters; // voters who are agree to spend the money to given request\n     }\n\n// here we cant store this to an array bcz in new versions\n// array cant have mapping type stored init\n     mapping(uint => Request) public requests;\n\n     uint public numRequests;\n   \n\n    // adding events\n    event ContributeEvent(address _sender,uint _value);\n    event CreateRequestEvent(string _description,address _recipient,uint _value);\n    event makePaymentEvent(address _recipient, uint _value);\n\n\n     // call function when someone wants to send money to the crowdfunding contract\n\n     function contribute() public payable{\n        require(block.timestamp<deadline,\"DEADLINE HAS PASSED\");\n        require(msg.value>= minimumContribution,\"MINIMUM CONTRIBUTION NOT MET\");\n         \n        if(contributors[msg.sender]==0){\n            noOfContributors++;\n        }\n\n        contributors[msg.sender] += msg.value;\n        raisedAmount += msg.value;\n\n        emit ContributeEvent(msg.sender, msg.value);\n     }\n\n\n     receive() payable external{\n        contribute();\n     }\n\n\n     function getBalance() public view returns(uint) {\n        return address(this).balance;\n     }\n\n\n     // getting the refund- function\n     \n     function getRefund() public{\n    \n    require(block.timestamp> deadline && raisedAmount < goal);\n    require(contributors[msg.sender]>0);\n\n     address payable recipeint = payable(msg.sender);\n     uint value = contributors[msg.sender];\n     recipeint.transfer(value);\n      \n      contributors[msg.sender] = 0;\n     }\n\n\n\n// create request function can only be call by admin\n        modifier onlyAdmin(){\n            require(msg.sender==admin,\"only admin can call this function\");\n            _;\n        }\n     // creating a spending request\n    \n    function CreateRequest(string memory _description,address payable _recipient,uint _value) public onlyAdmin{\n        // struct must be declare as storage bcz it contains nested mapping here\n        // default of the numrequest is zero - so the request starts from index zero\n         Request storage newRequest = requests[numRequests];\n         newRequest.receipient=_recipient;\n         newRequest.description= _description;\n         newRequest.value= _value;\n         newRequest.completed= false;\n         newRequest.noOfVoters =0;\n\n// we can also do this way normally - but here we got the error - bcz the given struct contain nested mapping\n// and cant be initiaze with a constructore\n      //  requests[numRequests] = Request(_description,_recepient,_value,false,0);\n\n\n\n     emit CreateRequestEvent(_description, _recipient, _value);\n    }\n\n  // Voting for a Request\n\n   function VoteRequest(uint _requestNo) public{\n     require(contributors[msg.sender]>0,'You must be a contributor to vote!');\n     Request storage thisRequest = requests[_requestNo];\n\n     require(thisRequest.voters[msg.sender]==false, \"You have already voted!\");\n     thisRequest.voters[msg.sender] = true;\n     thisRequest.noOfVoters++;\n   }\n\n   // making the payment - call by admin to tranfer the money\n   \n   function makePayment(uint _requestNo) public onlyAdmin{\n    require(raisedAmount>=goal);\n    Request storage thisRequest = requests[_requestNo];\n    require(thisRequest.completed==false,\"This request has been completed\");\n    require(thisRequest.noOfVoters>noOfContributors/2); // 50% voted fo this request\n    thisRequest.receipient.transfer(thisRequest.value);\n    thisRequest.completed=true;\n\n    emit makePaymentEvent(thisRequest.receipient, thisRequest.value);\n   }\n\n\n\n}",
  "sourcePath": "/home/tuba/Work-Folder/BlockChain-Developement/CrowdFunding-Dapp-project/src/contracts/CrowdFunding.sol",
  "compiler": {
    "name": "solc",
    "version": "0.8.16+commit.07a7930e.Emscripten.clang"
  },
  "schemaVersion": "3.4.9",
  "updatedAt": "2022-09-05T16:47:57.819Z",
  "devdoc": {
    "kind": "dev",
    "methods": {},
    "version": 1
  },
  "userdoc": {
    "kind": "user",
    "methods": {},
    "version": 1
  }
}