{
  "contractName": "CrowdFunding",
  "abi": [
    {
      "inputs": [
        {
          "internalType": "uint256",
          "name": "_goal",
          "type": "uint256"
        },
        {
          "internalType": "uint256",
          "type": "uint256"
        }
      ],
      "stateMutability": "nonpayable",
      "type": "constructor"
    },
    {
      "inputs": [],
      "name": "admin",
      "outputs": [
        {
          "internalType": "address",
          "name": "",
          "type": "address"
        }
      ],
      "stateMutability": "view",
      "type": "function"
    },
    {
      "inputs": [
        {
          "internalType": "address",
          "name": "",
          "type": "address"
        }
      ],
      "name": "contributors",
      "outputs": [
        {
          "internalType": "uint256",
          "name": "",
          "type": "uint256"
        }
      ],
      "stateMutability": "view",
      "type": "function"
    },
    {
      "inputs": [],
      "name": "deadline",
      "outputs": [
        {
          "internalType": "uint256",
          "name": "",
          "type": "uint256"
        }
      ],
      "stateMutability": "view",
      "type": "function"
    },
    {
      "inputs": [],
      "name": "goal",
      "outputs": [
        {
          "internalType": "uint256",
          "name": "",
          "type": "uint256"
        }
      ],
      "stateMutability": "view",
      "type": "function"
    },
    {
      "inputs": [],
      "name": "minimumContribution",
      "outputs": [
        {
          "internalType": "uint256",
          "name": "",
          "type": "uint256"
        }
      ],
      "stateMutability": "view",
      "type": "function"
    },
    {
      "inputs": [],
      "name": "noOfContributors",
      "outputs": [
        {
          "internalType": "uint256",
          "name": "",
          "type": "uint256"
        }
      ],
      "stateMutability": "view",
      "type": "function"
    },
    {
      "inputs": [],
      "name": "raisedAmount",
      "outputs": [
        {
          "internalType": "uint256",
          "name": "",
          "type": "uint256"
        }
      ],
      "stateMutability": "view",
      "type": "function"
    },
    {
      "stateMutability": "payable",
      "type": "receive"
    },
    {
      "inputs": [],
      "name": "contribute",
      "outputs": [],
      "stateMutability": "payable",
      "type": "function"
    },
    {
      "inputs": [],
      "name": "getBalance",
      "outputs": [
        {
          "internalType": "uint256",
          "name": "",
          "type": "uint256"
        }
      ],
      "stateMutability": "view",
      "type": "function"
    }
  ],
  "bytecode": "0x608060405234801561001057600080fd5b5060405161080e38038061080e833981810160405281019061003291906100d6565b8160058190555080426100459190610145565b600481905550606460028190555033600160006101000a81548173ffffffffffffffffffffffffffffffffffffffff021916908373ffffffffffffffffffffffffffffffffffffffff1602179055505050610179565b600080fd5b6000819050919050565b6100b3816100a0565b81146100be57600080fd5b50565b6000815190506100d0816100aa565b92915050565b600080604083850312156100ed576100ec61009b565b5b60006100fb858286016100c1565b925050602061010c858286016100c1565b9150509250929050565b7f4e487b7100000000000000000000000000000000000000000000000000000000600052601160045260246000fd5b6000610150826100a0565b915061015b836100a0565b925082820190508082111561017357610172610116565b5b92915050565b610686806101886000396000f3fe60806040526004361061008a5760003560e01c80634e260f6f116100595780634e260f6f1461015c578063937e09b114610187578063c59ee1dc146101b2578063d7bb99ba146101dd578063f851a440146101e757610099565b806312065fe01461009e5780631f6d4942146100c957806329dcb0cf14610106578063401938831461013157610099565b3661009957610097610212565b005b600080fd5b3480156100aa57600080fd5b506100b361036a565b6040516100c091906103e7565b60405180910390f35b3480156100d557600080fd5b506100f060048036038101906100eb9190610465565b610372565b6040516100fd91906103e7565b60405180910390f35b34801561011257600080fd5b5061011b61038a565b60405161012891906103e7565b60405180910390f35b34801561013d57600080fd5b50610146610390565b60405161015391906103e7565b60405180910390f35b34801561016857600080fd5b50610171610396565b60405161017e91906103e7565b60405180910390f35b34801561019357600080fd5b5061019c61039c565b6040516101a991906103e7565b60405180910390f35b3480156101be57600080fd5b506101c76103a2565b6040516101d491906103e7565b60405180910390f35b6101e5610212565b005b3480156101f357600080fd5b506101fc6103a8565b60405161020991906104a1565b60405180910390f35b6004544210610256576040517f08c379a000000000000000000000000000000000000000000000000000000000815260040161024d90610519565b60405180910390fd5b60025434101561029b576040517f08c379a000000000000000000000000000000000000000000000000000000000815260040161029290610585565b60405180910390fd5b60008060003373ffffffffffffffffffffffffffffffffffffffff1673ffffffffffffffffffffffffffffffffffffffff16815260200190815260200160002054036102fa57600360008154809291906102f4906105d4565b91905055505b346000803373ffffffffffffffffffffffffffffffffffffffff1673ffffffffffffffffffffffffffffffffffffffff1681526020019081526020016000206000828254610348919061061c565b925050819055503460066000828254610361919061061c565b92505081905550565b600047905090565b60006020528060005260406000206000915090505481565b60045481565b60055481565b60035481565b60025481565b60065481565b600160009054906101000a900473ffffffffffffffffffffffffffffffffffffffff1681565b6000819050919050565b6103e1816103ce565b82525050565b60006020820190506103fc60008301846103d8565b92915050565b600080fd5b600073ffffffffffffffffffffffffffffffffffffffff82169050919050565b600061043282610407565b9050919050565b61044281610427565b811461044d57600080fd5b50565b60008135905061045f81610439565b92915050565b60006020828403121561047b5761047a610402565b5b600061048984828501610450565b91505092915050565b61049b81610427565b82525050565b60006020820190506104b66000830184610492565b92915050565b600082825260208201905092915050565b7f444541444c494e45204841532050415353454400000000000000000000000000600082015250565b60006105036013836104bc565b915061050e826104cd565b602082019050919050565b60006020820190508181036000830152610532816104f6565b9050919050565b7f4d494e494d554d20434f4e545249425554494f4e204e4f54204d455400000000600082015250565b600061056f601c836104bc565b915061057a82610539565b602082019050919050565b6000602082019050818103600083015261059e81610562565b9050919050565b7f4e487b7100000000000000000000000000000000000000000000000000000000600052601160045260246000fd5b60006105df826103ce565b91507fffffffffffffffffffffffffffffffffffffffffffffffffffffffffffffffff8203610611576106106105a5565b5b600182019050919050565b6000610627826103ce565b9150610632836103ce565b925082820190508082111561064a576106496105a5565b5b9291505056fea2646970667358221220755cb375c1a39cba483cc03aa52211e3a6a9f8970b6a5308375c6e74024e5f8664736f6c63430008100033",
  "immutableReferences": {},
  "source": "\n// SPDX-License-Identifier: GPL-3.0\npragma solidity >=0.7.0 <0.9.0;\n\ncontract CrowdFunding{\n    // address key - value - amount sent by contributors\n     mapping(address=>uint) public contributors;\n\n     address public admin;\n     uint public minimumContribution;\n     uint public noOfContributors;\n     uint public deadline; // timestamp\n     uint public goal;\n     uint public raisedAmount;\n\n     constructor(uint _goal,uint _deadline){\n        goal=_goal;\n        deadline = block.timestamp+ _deadline;\n        minimumContribution = 100 wei;\n        admin = msg.sender;\n\n     }\n\n\n     // call function when someone wants to send money to the crowdfunding contract\n\n     function contribute() public payable{\n        require(block.timestamp<deadline,\"DEADLINE HAS PASSED\");\n        require(msg.value>= minimumContribution,\"MINIMUM CONTRIBUTION NOT MET\");\n         \n        if(contributors[msg.sender]==0){\n            noOfContributors++;\n        }\n\n        contributors[msg.sender] += msg.value;\n        raisedAmount += msg.value;\n     }\n\n\n     receive() payable external{\n        contribute();\n     }\n\n\n     function getBalance() public view returns(uint) {\n        return address(this).balance;\n     }\n\n}",
  "sourcePath": "/home/tuba/Work-Folder/BlockChain-Developement/CrowdFunding-Dapp-project/src/contracts/CrowdFunding.sol",
  "compiler": {
    "name": "solc",
    "version": "0.8.16+commit.07a7930e.Emscripten.clang"
  },
  "schemaVersion": "3.4.9",
  "updatedAt": "2022-09-05T10:15:04.916Z",
  "devdoc": {
    "kind": "dev",
    "methods": {},
    "version": 1
  },
  "userdoc": {
    "kind": "user",
    "methods": {},
    "version": 1
  }
}